:103800000C942D1C0C94EC1E040309041C0377007B
:10381000770077002E00660069007300630068007F
:103820006C002E00640065000E035500530042003A
:1038300061007300700012011001FF000008C01643
:10384000DC050001010200010902120001010080F3
:103850003209040000000000000011241FBECFEF59
:10386000D4E0DEBFCDBF11E0A0E0B1E0ECEEFFE3BD
:1038700002C005900D92A630B107D9F711E0A6E07D
:10388000B1E001C01D92AB33B107E1F70E945B1CB0
:103890000C94001C0C94001CF89481E085BF15BEAC
:1038A000E898209828981092690017B81AB818B8A4
:1038B0001BB80C94000084B78E7F823031F0E0E0BA
:1038C000F0E0E491EF3F09F06CC214BE10921D01CC
:1038D00080E187B988B988E08AB981E085BF82E054
:1038E00085BF789480916900836080936900E89A2D
:1038F000E8982098289820E040E050E0CA0101971D
:10390000F1F72F5F2632D1F7209A289AE89A82E3BE
:1039100080931E016CE0262E312C00E158E2652ECA
:1039200058E3752E4CE0442E48E3542E38E0E32E45
:1039300038E3F32E28E4C22E28E3D22E96E3A92EF4
:1039400098E3B92E86E0882E81E0982E909121018F
:10395000935097FD79C180911C01D101A81BB10939
:10396000AB5DBE4F80911B018D3209F0F9C09830DC
:1039700009F068C123EC20930B016AE56093000114
:1039800010920A013C91832F807611962C91119709
:10399000882309F470C09092200180921F01253085
:1039A00039F4109206018FEF80931E0191E0C4C09C
:1039B000213011F45B9A4AC0223029F45B9881E0EF
:1039C00080931D0143C0233009F03EC010920601D0
:1039D00010920701109208011092090112968C9121
:1039E0001297803361F41496EC911497F0E0E37031
:1039F000F070EE5FFE4F8081809309019CC08C3A8D
:103A000009F099C013968C911397803809F093C0F0
:103A1000109219011092180180E090E00CC007B6D6
:103A200000FCFDCFF89423E0FC0120935700E895BB
:103A3000789480589F4F68E38030960780F3909386
:103A400019018093180177C0243010F490E074C0FD
:103A500012968D919C911397909319018093180160
:103A600016968C9116978093160120931A0137FDB4
:103A700069C02FEF69C012968C91129710921401B1
:103A8000222331F41092150124E131E092E04EC07E
:103A9000253019F48093220146C02630A1F51396F3
:103AA0008C911397813029F4B0922001A0921F01CC
:103AB00006C0823031F4D0922001C0921F0192E101
:103AC0001EC08330D9F412968C911297882331F45A
:103AD000F0922001E0921F0194E011C0813031F496
:103AE0005092200140921F019CE109C0823031F4C4
:103AF0007092200160921F019EE001C090E080E47E
:103B000080930A0119C0283019F424E231E009C079
:103B1000293019F48093240106C02A3021F424E1CD
:103B200031E091E003C024E131E090E030932001E6
:103B300020931F0101C094E017968C91179788235A
:103B400039F00AC016962C9180E880930A0105C0CE
:103B500016962C91291708F0292F2093010172C085
:103B600080910A0187FF6EC080911601292F891765
:103B700008F4282F821B8093160180911A01883047
:103B8000F1F4FD0117C03081809118019091190165
:103B9000019690931901809318010197F999FECF2E
:103BA00031961FBA92BD81BD30BD0FB6F894FA9A16
:103BB000F99A0FBE8E2F8A1B821728F33AC0522F14
:103BC0005695515040E0F894209118013091190118
:103BD0008D919D9161E00C01F90160935700E8958A
:103BE00011247894B9016E5F7F4F862F90E08F7714
:103BF0009070892B31F080911601882391F445173C
:103C000081F4F89485E0F90180935700E895789461
:103C100007B600FCFDCFF894E1E1E0935700E8958A
:103C2000789470931901609318014F5F541708F04E
:103C3000CACF88B1802788B980911601882311F4F2
:103C400010920101109221018091000184FF86C031
:103C5000809101018F3F09F481C0182F893008F04D
:103C600018E0811B8093010180910B0198E889275E
:103C700080930B01112309F45EC080910A0187FF34
:103C800034C080911601811708F4182F811B80938E
:103C90001601ACE0B1E0412F50E04A0F5B1F1CC0A1
:103CA00080911A012091180130911901873039F45F
:103CB000F999FECF32BD21BDF89A80B502C0F90155
:103CC00084918C931196809118019091190101961D
:103CD0009093190180931801A417B50709F788B1CB
:103CE000802788B91930A0F526C020911F01309196
:103CF000200186FF0DC0ACE0B1E080E090E0F9016A
:103D0000E80FF91FE491ED9301961817C1F708C069
:103D1000D901912FECE0F1E08D9181939150E1F781
:103D20001150812F90E01F5F0196820F931F909397
:103D3000200180931F01612F8CE091E00E94E81E1A
:103D4000612F6C5F6C3041F08FEF8093010104C0F4
:103D50008FEF809301016EE1609300019AE089B1D9
:103D6000847131F49150D9F7109222011092170109
:103D7000219651F488B1802788B980911E018F3F28
:103D800019F0815080931E0180911D01882329F430
:103D900080911E01882309F0D9CD80E090E0019741
:103DA000F1F70E944C1CA82FB92F80E090E041E071
:103DB00050EA60956F5F58F42D9138EF8227979500
:103DC000879510F0842795273F5FC8F3F3CF0895B8
:103DD000EADF8D939D930895CF93CFB7CF93DF9371
:103DE0004C9BFECF4C9B11C04C9B0FC04C9B0DC0FD
:103DF0004C9B0BC04C9B09C04C9B07C04C9B05C007
:103E00004C9B03C04C9B01C081C06F93C0911C01AF
:103E1000DD27CB5DDE4F2F9320E400C065E04C9B97
:103E200003C02F916F91DECF0F931F934F9345E502
:103E30005F9355E53F933BE014E009B104712EC058
:103E40006A95C9F03150D8F109B1047101130BC062
:103E500008942795299320E4555500F46A9569F74D
:103E600001E069B10BC0102F66E02695299320E48C
:103E7000555518F3E2CF0FEF69B10000162F4555E5
:103E800000F0404066E014710030E2F221F00000E2
:103E900009B1047103C009B10471A9F0011309C08B
:103EA0000894279568F200C06A95A9F700E069B107
:103EB000E5CF102F66E0269528F20000ECCF11E048
:103EC0001CBB002717C03B503195C31BD04011E0ED
:103ED0001CBB0881033CF9F00B34E9F02091170179
:103EE0001981110F1213EDCF093651F10D3211F076
:103EF000013E39F7009323013F915F914F911F914C
:103F00000F912F916F91CCB3C0FD6ACFDF91CF910C
:103F1000CFBFCF91189500912301002369F3109131
:103F20002101112329F534302AF130932101009326
:103F30001B0110911C013BE0311B30931C011AC086
:103F4000009121010130A4F40AE53091000134FD13
:103F500012C000930001CBE0D1E011C0052710E0B2
:103F600000C00BB919C0052710E0221F00C01DC0FA
:103F70004AE502C032ED432FC4E1D0E032E01AB18D
:103F800014615C9A0BB11AB954E120E869E420FF8E
:103F900005270BB92795179500C000001C3FF0F6C8
:103FA0006695A8F7A1F720FF05270BB92795179568
:103FB00000001C3FC0F629913A9541F70B7E109105
:103FC0002201110F0BB9C651D04011F01093170107
:103FD00011E01CBB00611AB11B7E402F4B7E55E0E7
:0C3FE0005A95F1F70BB91AB94BB986CF0E
:063FEC005AFF1E940600BE
:0400000300003800C1
:00000001FF
