:103800000C942D1C0C94CA1E040309041C0377009D
:10381000770077002E00660069007300630068007F
:103820006C002E00640065000E035500530042003A
:1038300061007300700012011001FF000008C01643
:10384000DC050001010200010902120001010080F3
:103850003209040000000000000011241FBECFEF59
:10386000D4E0DEBFCDBF11E0A0E0B1E0E2EEFFE3C7
:1038700002C005900D92A630B107D9F711E0A6E07D
:10388000B1E001C01D92A933B107E1F70C945B1CB4
:103890000C94001CF89481E085BF15BEE898209830
:1038A00028981092690014B815B81AB81BB818B83F
:1038B0000C9400000895CFEFD4E0DEBFCDBF17B861
:1038C0008CE388B980E090E0FC01259134912F5F72
:1038D0003F4F61F020E086B1847209F033C280E28C
:1038E0009EE40197F1F72F5F283CA9F786E084B9A1
:1038F00084E085B981E085BF82E085BF78948091BE
:103900006900836080936900E89AE8982098289875
:1039100020E0E0E0F0E0CF010197F1F72F5F2F31D9
:10392000D1F7209A289AE89A80911F0118160CF076
:1039300074C1282F235080911C01CFE2D1E0C81B15
:10394000D10980911B018D3209F0F2C08AE5809384
:103950000101283009F059C13881832F80762981EF
:10396000882309F05DC084E191E0109214012223C4
:1039700041F41092150190931E0180931D0192E075
:10398000E4C1253021F48A8180932001DDC12630F5
:1039900099F58B81813019F486E398E304C0823075
:1039A00041F488E498E390931E0180931D0192E115
:1039B000CFC1833009F0CBC18A81882341F488E0EC
:1039C00098E390931E0180931D0194E0C1C1813062
:1039D00041F48CE098E390931E0180931D019CE1DB
:1039E000B7C1823009F0B3C188E298E390931E0119
:1039F00080931D019EE0ACC1283019F482E291E071
:103A000009C0293021F48A81809322019DC12A3086
:103A100009F09AC190931E0180931D0191E095C118
:103A200086E091E090931E0180931D01253021F4E2
:103A30001092060181E06EC0213011F42A9803C073
:103A4000223019F42A9A80E065C0233009F042C080
:103A500010920601109207011092080110920901BC
:103A6000EC81EE2E9B81F92E8A81803339F4FF2779
:103A7000E370F070EE5FFE4F808106C0803A39F44B
:103A8000D7010E94DD1F802D8093090142C0803C38
:103A900031F48D81D701082E0E94E51F3AC08C3A7F
:103AA000C1F59038B1F5109219011092180180E01B
:103AB00090E023E007B600FCFDCFF894FC012093D2
:103AC0005700E895789480589F4F38E380309307EB
:103AD00088F31BC0273141F48A81809306018B81D2
:103AE0008093070182E016C0243008F4ACCF8A81AD
:103AF0009B8190931901809318018E818093160108
:103B000020931A0137FD08C07DC09093190180935E
:103B1000180184E0982F19C1982F75C08F818823D0
:103B200009F075C08E81891708F071C0982F6FC099
:103B300080910A0187FD69C090911601892F29178C
:103B400008F4922FB82FB91BB093160180911A0177
:103B50008830A1F420E00FC08991A0911801B091A4
:103B600019011196B0931901A09318011197082E0D
:103B70000E94E51F2F5F291779F73AC0A92FA69554
:103B8000A15060E070E081E0D82E05E011E12091C5
:103B9000180130911901F894899199910C01F9015A
:103BA000D0925700E89511247894A9014E5F5F4F99
:103BB000CA018F779070892B21F0BB2381F4A6175F
:103BC00071F4F894F90100935700E895789407B6DA
:103BD00000FCFDCFF89410935700E89578949A0173
:103BE0006F5F7F4FA617B8F65093190140931801E5
:103BF00085B194E0892785B980911601882311F455
:103C000090E001C09FEF20E002C090E020E8209308
:103C10000A019093000110921F018091010184FF1D
:103C20007BC0809100018F3F09F476C0682F8930F6
:103C300008F068E0861B8093000180910A0180FFF4
:103C400002C003EC01C00BE48F5F80930A0187FF81
:103C50001EC0E0911D01F0911E0186FD04C0962F4B
:103C6000ACE0B1E00CC0962FACE0B1E003C08491B1
:103C70008D9331969150D8F704C081918D939150D6
:103C8000E0F7F0931E01E0931D0177272EC0662315
:103C900009F460C020911601822F621708F4262FC4
:103CA000821B8093160130911A01E0911801F09166
:103CB0001901CCE0D1E090E00CC0373029F4DF01ED
:103CC0000E94DD1F802D01C08491888321969F5F13
:103CD0003196921791F7F0931901E093180185B18D
:103CE00094E0892785B9622F7727162F693060F411
:103CF0008CE091E00E94C61E912F9C5F183040F42A
:103D00008FEF8093000104C08FEF809300019EE14C
:103D100000930B01909301019AE089B1847131F411
:103D20009150D9F710922001109217010894A11C0C
:103D3000B11CA114B10421F485B192E0892785B9A1
:103D40003399F2CD0E944A1C90E020E8E7CE90E043
:103D500020ECE4CE60E08CE091E00E94C61E94E08E
:103D6000CFCFA82FB92F80E090E041E050EA6095D6
:103D70006F5F58F42D9138EF82279795879510F053
:103D8000842795273F5FC8F3F3CF0895EADF8D932B
:103D90009D930895CF93CFB7CF93DF934C9BFECFE6
:103DA0004C9B0BC04C9B09C04C9B07C04C9B05C057
:103DB0004C9B03C04C9B01C089C06F93C0911C01F8
:103DC000DD27CD5DDE4F2F9365E54C9B03C02F9122
:103DD0006F91E6CF0F931F934F9320E040E15F93E5
:103DE00009B1047104FB27F93F9350E03BE039C06F
:103DF000147140642F77012F53501EC0406819B1D1
:103E000014712F7753501FC0406409B12F7704718C
:103E1000D1F15350000023C0406219B12F771471C3
:103E200091F15350000025C004711027515012F435
:103E30005D5F0000115027952C3F19B1C8F6147131
:103E40000127015027952C3FC8F64227499309B115
:103E5000047110274F73115027952C3FA8F64695F3
:103E6000469519B1147179F00127015027952C3F1F
:103E700098F66B5A60F3315009B1B0F600C011E00A
:103E80001CBB002717C03B503195C31BD04011E02D
:103E90001CBB0881033CF9F00B34E9F020911701B9
:103EA0001981110F1213EDCF093651F10D3211F0B6
:103EB000013E39F7009321013F915F914F911F918E
:103EC0000F912F916F91CCB3C0FD68CFDF91CF914F
:103ED000CFBFCF91189500912101002369F3109174
:103EE0001F01112339F534303AF130931F0100934B
:103EF0001B0110911C013BE0311B30931C011CC0C5
:103F000000911F010130B4F40AE53091010134FD44
:103F100014C000930101CBE0D1E013C0052710E0ED
:103F200000C000000BB91AC0052710E0221F1DC0F9
:103F300010E021C04AE502C032ED432FC4E1D0E0D9
:103F400032E01AB114615C9A0BB11AB954E120E85D
:103F500065E320FF05270BB9279517951C3FF0F661
:103F60006695B8F7B1F720FF05270BB92795179588
:103F70001C3FD0F62795179517FF052700001C3F1B
:103F80000BB9B0F629913A9519F70B7E10912001E3
:103F9000110FC651D0400BB911F01093170111E069
:103FA0001CBB00611AB11B7E402F4B7E54E05A951A
:103FB000F1F70BB91AB94BB97FCFF999FECFB2BD62
:103FC000A1BDF89A119600B40895F999FECFB2BD3B
:103FD000A1BD00BC11960FB6F894FA9AF99A0FBEDB
:023FE000089542
:063FE200FF5A1E940600C8
:0400000300003800C1
:00000001FF
