:103800000C942D1C0C94D31E040309041C03770094
:10381000770077002E00660069007300630068007F
:103820006C002E00640065000E035500530042003A
:1038300061007300700012011001FF000008C01643
:10384000DC050001010200010902120001010080F3
:103850003209040000000000000011241FBECFEF59
:10386000D4E0DEBFCDBF11E0A0E0B1E0E6EFFFE3C2
:1038700002C005900D92A630B107D9F711E0A6E07D
:10388000B1E001C01D92A933B107E1F70E945C1CB1
:103890000C94FA1F0C94001CF89481E085BF15BEAF
:1038A000E898209828981092690014B815B81AB8AA
:1038B0001BB818B80C940000CFEFD4E0DEBFCDBF2A
:1038C00017B88CE388B9E0E0F0E0E491EF3F61F0F5
:1038D00020E086B1847209F045C280E29EE401973F
:1038E000F1F72F5F283CA9F786E084B984E085B919
:1038F00081E085BF82E085BF789480916900836014
:1039000080936900E89AE8982098289820E080E061
:1039100090E00197F1F72F5F2F31C9F7209A289A8D
:10392000E89A44E1A42E41E0B42E32E2632E31E065
:10393000732E28E2422E28E3522E9CE0292E98E393
:10394000392E88EFC82E8FEFD82ECA0CDB1C809141
:103950001F0118160CF06DC1982F935080911C0117
:10396000CFE2D1E0C81BD10980911B018D3209F053
:10397000ECC08AE580930101983009F052C138818A
:10398000832F80762981882309F058C01092140172
:10399000222339F410921501B0921E01A0921D014C
:1039A000AFC0253021F48A8180932001DDC126300B
:1039B00079F58B81813019F486E398E304C0823075
:1039C00041F488E498E390931E0180931D0192E1F5
:1039D000CFC1833009F0CBC18A81882341F488E0CC
:1039E00098E390931E0180931D0194E0C1C1813042
:1039F00031F430921E0120921D019CE1B9C1823048
:103A000009F0B5C150921E0140921D019EE0B0C167
:103A1000283029F470921E0160921D010DC02930DA
:103A200021F48A81809322019FC12A3009F09CC130
:103A3000B0921E01A0921D0191E097C186E091E035
:103A400090931E0180931D01253019F410920601F8
:103A5000F3CF213011F42A9887C1223011F42A9A29
:103A600083C1233009F044C010920601109207016F
:103A70001092080110920901EC81EE2E9B81F92E23
:103A80008A81803339F4FF27E370F070EE5FFE4FD8
:103A9000808106C0803A39F4D7010E94E61F802D4C
:103AA0008093090144C0803C31F48D81D701082EF8
:103AB0000E94EE1F3CC08C3A09F039C09038B9F52D
:103AC000109219011092180120E030E00CC007B6E6
:103AD00000FCFDCFF89483E0F90180935700E8954E
:103AE000789420583F4F98E32030390780F31BC06B
:103AF000273141F48A81809306018B8180930701ED
:103B000092E033C1243008F42FC18A819B819093C5
:103B10001901809318018E818093160120931A0158
:103B200037FD07C07CC0309319012093180194E041
:103B30001CC1982F72C08F81882309F074C08E81B8
:103B4000891708F070C0982F6EC080910A0187FD18
:103B500068C080911601891708F4982F891B8093FB
:103B6000160180911A018830A1F420E00FC08991DC
:103B7000A0911801B09119011196B0931901A09369
:103B800018011197082E0E94EE1F2F5F291779F751
:103B90003BC0392F3695315060E070E0F894409189
:103BA00018015091190121E0899199910C01FA01B4
:103BB00020935700E89511247894DA0112968A2F01
:103BC00099278F779070892B31F080911601882387
:103BD00091F4361781F4F89485E0FA018093570048
:103BE000E895789407B600FCFDCFF89481E18093C6
:103BF0005700E8957894B0931901A09318016F5F6E
:103C00007F4F361708F0CACF85B194E0892785B970
:103C100080911601882319F490E020E004C09FEF02
:103C2000FCCF90E020E820930A01909300011092CD
:103C30001F018091010184FF7FC0809100018F3FAF
:103C400009F47AC0682F893008F068E0861B8093F9
:103C5000000180910A0180FF02C003EC01C00BE467
:103C60008F5F80930A0187FF20C020911D01309152
:103C70001E0186FD04C0962FD901F6010CC0962FB7
:103C8000F901D60103C084918D9331969150D8F7F4
:103C900004C08D9181939150E0F7C901860F911D69
:103CA00090931E0180931D0130C0662319F460E0DB
:103CB00070E02CC080911601861708F4682F861BCF
:103CC00080931601E60120E01AC080911A01E0916C
:103CD0001801F0911901873029F4DF010E94E61FD5
:103CE000802D01C084918883219680911801909144
:103CF0001901019690931901809318012F5F2617DF
:103D000021F785B194E0892785B97727162F693087
:103D100058F4C6010E94CF1E912F9C5F183041F0CD
:103D20008FEF8093000104C08FEF809300019EE12C
:103D300000930B01909301019AE089B1847131F4F1
:103D40009150D9F710922001109217010894811C0C
:103D5000911C8114910421F485B192E0892785B9E1
:103D60003399F5CD0E944C1C90E020E8E4CE90E021
:103D700020ECE1CEA82FB92F80E090E041E050EA9E
:103D800060956F5F58F42D9138EF8227979587954E
:103D900010F0842795273F5FC8F3F3CF0895EADF3B
:103DA0008D939D930895CF93CFB7CF93DF934C9B83
:103DB000FECF4C9B0BC04C9B09C04C9B07C04C9B3F
:103DC00005C04C9B03C04C9B01C089C06F93C09140
:103DD0001C01DD27CD5DDE4F2F9365E54C9B03C0B5
:103DE0002F916F91E6CF0F931F934F9320E040E107
:103DF0005F9309B1047104FB27F93F9350E03BE066
:103E000039C0147140642F77012F53501EC0406891
:103E100019B114712F7753501FC0406409B12F7727
:103E20000471D1F15350000023C0406219B12F77C3
:103E3000147191F15350000025C0047110275150A6
:103E400012F45D5F0000115027952C3F19B1C8F6A0
:103E500014710127015027952C3FC8F6422749933A
:103E600009B1047110274F73115027952C3FA8F604
:103E70004695469519B1147179F00127015027959F
:103E80002C3F98F66B5A60F3315009B1B0F600C080
:103E900011E01CBB002717C03B503195C31BD0401D
:103EA00011E01CBB0881033CF9F00B34E9F02091D0
:103EB00017011981110F1213EDCF093651F10D328F
:103EC00011F0013E39F7009321013F915F914F912D
:103ED0001F910F912F916F91CCB3C0FD68CFDF91EF
:103EE000CF91CFBFCF91189500912101002369F3A5
:103EF00010911F01112339F534303AF130931F012D
:103F000000931B0110911C013BE0311B30931C01FD
:103F10001CC000911F010130B4F40AE53091010189
:103F200034FD14C000930101CBE0D1E013C005279C
:103F300010E000C000000BB91AC0052710E0221FD6
:103F40001DC010E021C04AE502C032ED432FC4E19C
:103F5000D0E032E01AB114615C9A0BB11AB954E1A5
:103F600020E865E320FF05270BB9279517951C3F2F
:103F7000F0F66695B8F7B1F720FF05270BB927953E
:103F800017951C3FD0F62795179517FF05270000BA
:103F90001C3F0BB9B0F629913A9519F70B7E109199
:103FA0002001110FC651D0400BB911F01093170129
:103FB00011E01CBB00611AB11B7E402F4B7E54E008
:103FC0005A95F1F70BB91AB94BB97FCFF999FECFD2
:103FD000B2BDA1BDF89A119600B40895F999FECF2B
:103FE000B2BDA1BD00BC11960FB6F894FA9AF99A29
:063FF0000FBE0895FFCF93
:063FF600FF5A1E940600B4
:0400000300003800C1
:00000001FF
